:020000040800F2
:10000000900400200101000823100008AF0E000832
:100010002110000899010008A71100080000000045
:100020000000000000000000000000002710000891
:100030009B0100080000000025100008291000089E
:100040001B0100081B0100081B0100081B01000820
:100050001B0100081B0100081B0100081B01000810
:100060001B0100081B0100081B0100081B01000800
:100070001B0100081B0100081B0100081B010008F0
:100080001B0100081B0100081B0100081B010008E0
:100090001B0100081B0100081B010008B102000839
:1000A0001B0100081B0100081B0100081B010008C0
:1000B000C51000081B0100081B0100081B010008F7
:1000C0001B0100081B0100081B0100081B010008A0
:1000D0001B0100081B0100081B0100081B01000890
:1000E0001B0100081B0100081B010008DFF80CD0F1
:1000F00000F040F800480047A516000890040020D2
:100100000648804706480047FEE7FEE7FEE7FEE7B1
:10011000FEE7FEE7FEE7FEE7FEE7FEE77D100008EC
:10012000ED000008D2B201E000F8012B491EFBD21D
:1001300070470022F6E710B513460A4604461946F2
:10014000FFF7F0FF204610BD30B50B4601460020FA
:100150002022012409E021FA02F59D4205D303FA89
:1001600002F5491B04FA02F52844151EA2F101020A
:10017000F1DC30BD064C074D06E0E06840F00103BD
:1001800094E8070098471034AC42F6D3FFF7B2FF6B
:100190001C1800083C180008FEE770472DE9F041E4
:1001A00001F0C8F930A001F01BFA0121022001F092
:1001B00025FA31A001F014FA314F324C4FF001080A
:1001C0004FF4805600253146384600F097F920B9A3
:1001D000C4F818802561BDE8F081606828B931460F
:1001E000384600F08BF90128F7D001F017F960705C
:1001F00065604128E7D1A56101F09CF922A001F0DA
:10020000EFF90121022001F0F9F924A001F0E8F949
:1002100060680028FCD0656001F000F9607031284A
:1002200006D0322808D03328F2D12070B42006E05E
:10023000312020703C2002E0322020707820E060E5
:10024000207801F09FF94FF4FA6000F043F801F0D4
:1002500071F90122D102384600F055F9134800F037
:10026000BFFCC4E90458B6E74D6F697374757265D5
:100270003A447279000000005072657373204100A7
:10028000000801400400002043686F6F736520542C
:10029000696D652046726F6D000000007B312C3265
:1002A0002C337D204D696E203A0000005000002064
:1002B00010B5402000F026F8802000F023F84FF41D
:1002C000807000F01FF8BDE810404FF4007000F09F
:1002D00019B8704770B5044600F01AF90546601C5D
:1002E00002D004480078044400F012F9401BA042F8
:1002F000FAD370BD400000200149012048607047DA
:1003000004000020044910B50A68024202D00860C7
:10031000FFF7F2FF10BD0000140401402DE9F84F73
:10032000DFF8B891002409F1040A0AF1040B23460E
:100330000F270BF1040EC9E00125A5402A40AA426F
:100340007DD1674ED1F804C0ACEB0608B44532D07D
:1003500014DCBCF1030F3AD009DCBCF1000F2AD049
:10036000BCF1010F1CD0BCF1020F31D11DE0BCF17A
:10037000110F17D0BCF1120F2AD119E0B8F5881F60
:1003800019D006DCB8F5803F15D0B8F5801F1FD115
:1003900011E0B8F5001F0ED0B8F5041F18D10AE01F
:1003A000CB6815E0CB681B1D12E0CB6808330FE06B
:1003B000CB680C330CE08B682BB1012B4FF008039A
:1003C00003D0456104E0042302E0056100E000235E
:1003D000FF2A01D8064601E000F104064FEA840531
:1003E00001D9A5F12005D6F8008007FA05FC28EA16
:1003F0000C0803FA05F548EA0508C6F800804D68C0
:10040000ED0062D5374DAE6946F00106AE61AD69CB
:1004100024F0030605F001050095334D06EB050CAD
:10042000DCF80850A607360F07FA06F825EA080593
:10043000DFF8B880404503D14FF0000817E044E0F2
:10044000DFF8AC80404502D14FF001080FE0DFF843
:10045000A480404502D14FF0020808E0DFF8988000
:10046000404502D14FF0030801E04FF0040808FABC
:1004700006F848EA0508CCF808804D68D9F800600D
:10048000ED034D4601D5164300E096432E604D68BE
:10049000DAF80060AD03554601D5164300E09643F7
:1004A0002E604D68DBF80060ED025D4601D5164315
:1004B00000E096432E604D68DEF80060AD027546A0
:1004C00001D5164300E096432E60641C0D682A4651
:1004D000E5407FF431AFBDE8F88F00000004014033
:1004E000000011100010024000000140000801400F
:1004F000000C0140001001400014014080680840D9
:1005000000D0012070470AB1016170470904FBE780
:100510000148806870470000400000200248816860
:10052000027811448160704740000020074810B5F0
:10053000016841F010010160032000F075F800200F
:1005400000F006F800F024F8002010BD0020024062
:1005500070B50D4D04464FF47A712878B1FBF0F078
:100560000A490968B1FBF0F000F0CCFA48B9102C48
:1005700007D200222146501E00F036F800206C60A1
:1005800070BD012070BD0000400000204C00002024
:100590000C4808B5816941F001018161816901F070
:1005A00001010091C16941F08051C161C06900F051
:1005B000805000900448416821F0E06141F00071F2
:1005C000416008BD0010024000000140002809DB26
:1005D00000F01F02012191404009800000F1E0205D
:1005E000C0F8001170470000F0B40E4B1B680C46B9
:1005F000C3F30223C3F10705042D00D90425191DF7
:10060000072901D2002300E0DB1E012606FA05F1CE
:10061000491E214099409E40761E16403143F0BC51
:1006200000F008BE0CED00E0064900F00702086883
:100630004FF6FF03184040EA0220034A10430860C7
:10064000704700000CED00E00000FA052DE9F047CE
:100650000F46050061D0434E306800F00700B842F5
:1006600009D2306820F0070038433060306800F06D
:100670000700B84251D128683B4C810712D540078A
:1006800003D5606840F4E06060602878000703D517
:10069000606840F4605060606068A96820F0F00015
:1006A000084360602878C00728D06868012810D007
:1006B0002168022810D0890700292EDA616821F00C
:1006C000030101436160FFF723FF804641F288394F
:1006D0000DE021688903EFE78901EDE7FFF718FFD7
:1006E000A0EB0801494502D90320BDE8F087606806
:1006F000696800F00C00B0EB810FEFD1306800F0BA
:100700000700B8420BD9306820F00700384330604A
:10071000306800F00700B84201D00120E5E72878F2
:10072000400705D56068E96820F4E0600843606030
:100730002878000706D56068296920F4605040EAEF
:10074000C100606000F018F86168084AC1F3031145
:10075000515CC8400649086006480068FFF7F8FE8B
:100760000020C2E700200240001002400C180008E0
:100770004C0000204400002012A185B00FC98DE874
:100780000F0014A0144A006804905168134801F047
:100790000C03042B10D0082B0ED1C1F38343C903E3
:1007A0001DF803000AD5516804AAC1F34041515C09
:1007B0000A4A5043B0FBF1F005B07047084948437E
:1007C000FAE7000002030405060708090A0B0C0DEE
:1007D0000E0F1010010200000010024000127A00FB
:1007E00000093D002DE9F84F040070D02078C04D7D
:1007F000C00749D06868C0F38100012807D0686845
:10080000C0F38100022809D16868C00306D52868B2
:10081000800339D560680028E7D035E06068B0F51E
:10082000803F0BD010B1B0F5A02F11D0286820F474
:1008300080302860286820F4802002E0286840F496
:1008400080302860606890B1FFF762FE06460AE0DB
:10085000286840F480202860F0E700BFFFF758FECA
:10086000801B642873D828688003F7D50CE0FFF755
:100870004FFE064605E000BFFFF74AFE801B6428D6
:10088000F0D828688003F7D420789A4E80074FF07C
:1008900001094FF0000839D5686810F00C0F07D037
:1008A0006868C0F38100022809D16868C00306D4D3
:1008B0002868800714D52069012808D110E0206934
:1008C000B0B1C6F80090FFF723FE074605E00AE145
:1008D000FFF71EFEC01B0228C4D828688007F7D582
:1008E0002868616920F0F80040EAC10028600DE046
:1008F000C6F80080FFF70CFE074604E0FFF708FE8D
:10090000C01B022823D828688007F7D42078000766
:100910002CD57948A169D9B1C0F80090FFF7F8FD4E
:10092000074604E0FFF7F4FDC01B02280FD8686AF1
:100930008007F7D571484FF4FA510068B0FBF1F029
:10094000009000BF0098411E0091FAD20EE080E0B6
:10095000C0F80080FFF7DCFD074604E0FFF7D8FD94
:10096000C01B022875D8686A8007F7D42078400732
:1009700060D5E8690027C00008D4E86940F08050DD
:10098000E861E869012700F0805000905C48016848
:10099000C90513D40168834641F480710160FFF7F3
:1009A000B7FD824606E000BFFFF7B2FDA0EB0A00EC
:1009B00064284ED8DBF80000C005F5D5E0680128B2
:1009C0000AD008B1052813D0286A20F00100286257
:1009D000286A20F0040002E0286A40F00100286242
:1009E000E06841F2883B98B1FFF792FD82460BE048
:1009F000286A40F004002862EEE700BFFFF788FD98
:100A0000A0EB0A0159455AD8286A8007F6D50CE0B0
:100A1000FFF77EFD824605E0FFF77AFDA0EB0A01B5
:100A200059454CD8286A8007F6D41FB1E86920F0F0
:100A30008050E861E06988B36968C1F381010229E7
:100A400044D00228C6F8608004D0FFF761FD044658
:100A500038E034E0FFF75CFD074604E0FFF758FD9F
:100A6000C01B02282BD828688001F7D4206AB0F573
:100A7000803F05D16868A16820F4003008436860B1
:100A8000D4E908010843696821F4741108436860D7
:100A9000C6F86090FFF73CFD044606E025E000BF85
:100AA000FFF736FD001B022809D828688001F7D51A
:100AB0001BE000BFFFF72CFD001B022802D903201A
:100AC000BDE8F88F28688001F4D40EE00128F7D043
:100AD0006868226A00F48031914204D1616A00F4AE
:100AE0007010884201D00120EAE70020E8E700000A
:100AF0000010024000004242800442424C000020AC
:100B00000070004010B5401EB0F1807F01D301207D
:100B100010BD4FF0E02460610F21601700F08AFBE8
:100B20000020A06107202061002010BD70477047A1
:100B300070B590F83C20012A19D0012400F83C4FF0
:100B40000222427050F83C3C5A689D6822F07006C0
:100B50000A684968324325F0800529435A6050F8F5
:100B60003C2C9160447000210170084670BD022049
:100B700070BD10B5040003D094F83D0010B107E03B
:100B8000012010BD002084F83C00204600F00CF845
:100B9000022084F83D00211D206800F099FA012010
:100BA00084F83D00002010BD08B50068B0F1804F0A
:100BB00012D10A48C16941F00101C161C069002236
:100BC00000F00100009011461C20FFF70DFDBDE86C
:100BD00008401C20FFF7FABC08BD000000100240CE
:100BE0000168CA6842F00102CA600068816801F0C9
:100BF0000701062903D0016841F0010101600020CE
:100C000070470168CA6822F00102CA600068016A80
:100C100041F21112114207D1016A9210114203D11F
:100C2000016821F0010101600020704770B50446A1
:100C300090F83C00012817D0012584F83C50022090
:100C400084F83D002068826822F0770222F47F4217
:100C500082600868502830D00DDC20284DD005DC9B
:100C600098B310283BD148E0022070BD302844D012
:100C7000402834D139E0602828D0702806D0B0F55B
:100C8000805F2CD0B0F5005F29D10AE0CB68D1E9B4
:100C90000121206800F052FA2068816841F0770154
:100CA00009E0CB68D1E90121206800F047FA20680B
:100CB000816841F48041816011E0CA684968206818
:100CC00000F04EFA5021206807E016E0CA68496833
:100CD000206800F056FA6021206800F039FA84F8A4
:100CE0003D50002084F83C0070BDCA684968206807
:100CF00000F036FA40212068EFE7226801461046EE
:100D0000EBE7704770B50446006801694FF00005D5
:100D1000C943890715D4C168C943890711D4E91E9D
:100D2000016101202077206880698007204602D079
:100D3000FFF7E7FF04E000F098F8204600F096F88F
:100D4000257720680169C943490717D4C168C94399
:100D5000490713D46FF00401016102202077206855
:100D6000806910F4407F204602D0FFF7CAFF04E0FC
:100D700000F07BF8204600F079F8257720680169BB
:100D8000C943090716D4C168C943090712D46FF0D3
:100D900008010161042020772068C069800720468F
:100DA00002D0FFF7AEFF04E000F05FF8204600F04D
:100DB0005DF8257720680169C943C90617D4C16861
:100DC000C943C90613D46FF01001016108202077D0
:100DD0002068C06910F4407F204602D0FFF791FFE1
:100DE00004E000F042F8204600F040F82577206843
:100DF0000169C943C90708D1C168C943C90704D1FA
:100E0000891E0161204600F033F820680169C9435A
:100E1000090609D4C168C943090605D46FF08001E9
:100E200001612046FFF782FE20680169C943490637
:100E300009D4C168C943490605D46FF04001016176
:100E4000204600F033F820680169C94389060BD4B5
:100E5000C168C943890607D46FF0200101612046AB
:100E6000BDE87040FFF763BE70BD7047704700007B
:100E700010B50068B0F1804F11D1094CE068401EF8
:100E8000E0600CD100224FF400610648FFF73BFB05
:100E900000206061BDE810400348FFF7B2BE10BDFE
:100EA0000400002000080140500000207047FEE7C9
:100EB0002DE9F04786B000243A480094019402944A
:100EC0000394816941F010018161816901F0100191
:100ED0000491816941F020018161816901F0200163
:100EE0000491816941F004018161816901F004018B
:100EF0000491816941F0080181618069DFF8A8806F
:100F000000F008004FF46045049000222946404656
:100F1000FFF7F9FADFF8949048F607070022394600
:100F20004846FFF7F0FADFF888A000223821504643
:100F3000FFF7E9FA0095022601250396CDE9015451
:100F400069464046FFF7EAF900970396CDE9015458
:100F500069464846FFF7E2F92803CDE900046946EF
:100F600048460294FFF7DAF93820CDE90005CDE9CB
:100F7000024669465046FFF7D1F94FF47070009071
:100F80000C48CDE9010569465046FFF7C7F9002234
:100F900011461720FFF728FB1720FFF717FB06B0B5
:100FA000BDE8F08700100240001001400008014039
:100FB000000C01400000211010B586B00024174835
:100FC000009401940294039404944FF0804105949A
:100FD000016048F69F41C0E9011440F2CF71C0E9B9
:100FE00003148461FFF7C5FD08B1FFF772F94FF4F0
:100FF0008050009069460948FFF718FE08B1FFF7D6
:1010000068F9049404A905480594FFF791FD0028A8
:1010100001D0FFF75EF906B010BD000050000020BF
:10102000FEE7704770477047FFF778BA30B58FB06A
:1010300028216846FFF77DF814210AA8FFF779F800
:1010400001210804CDE90010002402940225049136
:10105000CDE907504FF4E01009906846FFF7C2FB56
:101060000F20CDE90A056802CDE90C4002210AA84B
:101070000E94FFF7EBFA0FB030BD00000D48016889
:1010800041F00101016041680B4A11404160016873
:101090000A4A11400160016821F480210160416821
:1010A00021F4FE0141604FF41F0181600449C00337
:1010B00008607047001002400000FFF8FFFFF6FED6
:1010C00008ED00E00148FFF71DBE000050000020C1
:1010D000F0B50268164B174C174D4FF080479842F9
:1010E00005D0B84203D0A04201D0A84203D122F0DB
:1010F00070064A683243984205D0B84203D0A042F5
:1011000001D0A84203D122F44074CA6822434C693A
:1011100022F08002224302608A68C2620A68826208
:10112000984201D10969016301214161F0BD0000CC
:10113000002C0140000400400008004010B5846805
:1011400042EA032224F47F440A432243826010BD12
:10115000826822F070020A4342F007018160704702
:1011600010B5036A046A24F001040462846924F05F
:10117000F00444EA021423F00A020A438461026282
:1011800010BD10B5036A23F0100303628369046A7B
:1011900023F4704343EA023224F0A00343EA01112E
:1011A0008261016210BDFEE710B50E4C206988B95E
:1011B00000F0C0F90CA000F013FA0121022000F0A9
:1011C0001DFA0DA000F00CFAA069012805D02078C6
:1011D00000F0D8F90120206110BD0AA000F000FA4B
:1011E000F8E70000040000204D6F697374757265A4
:1011F0003A576574000000004F70656E2054696DA9
:1012000065203A007261696E000000000FB4084B5F
:1012100010B504A902AA039800F02CF8044602A90C
:10122000002000F0D1F8204610BC5DF814FB00004F
:10123000C91300080907090E002804DB00F1E020AB
:1012400080F80014704700F00F0000F1E02080F8F3
:10125000141D704702E008C8121F08C1002AFAD105
:1012600070477047002001E001C1121F002AFBD126
:10127000704700002DE9FF4F89B09B4604460025CA
:1012800006E025280BD05A460B999047641C6D1C2C
:1012900020780028F5D10DB02846BDE8F08F002752
:1012A000B8460122474900E0074314F8013F203BBC
:1012B00002FA03F00842F7D120782E2819D114F849
:1012C000010F47F004072A280ED06FF02F02207874
:1012D000A0F1300109290CD808EB880102EB41018B
:1012E00000EB0108641CF2E70A98641C50F8048BB8
:1012F0000A9020780028CED0642808D0692806D02B
:1013000075281ED05A460B9990476D1C58E00A99D3
:101310004FF00A0901C90A91002802DA40422D2142
:1013200002E0390504D52B218DF82010012103E0BE
:10133000F90704D02021F7E78A4608AE0DE0002126
:10134000FAE70A994FF00A0901C90A91F7E74946F5
:10135000FEF7FAFE303106F8011D0028F7D1ADEB9B
:10136000060000F12009780701D44FF00108C845B4
:1013700002DDA8EB090000E000208046002706E01F
:1013800008A85A46C05D0B9990476D1C7F1C5745B5
:10139000F6DB04E030205A460B9990476D1CB8F1FB
:1013A0000001A8F10108F5DC05E016F8010B5A462A
:1013B0000B9990476D1CB9F10001A9F10109F4DC0A
:1013C000641C65E7092801000A68531C0B60107053
:1013D0007047000070B50F4D0446C0F3C0024FF4D3
:1013E00000512846FFF78FF8C4F380024FF4804184
:1013F0002846FFF788F8C4F340024FF4004128461E
:10140000FFF781F804F00102BDE8704001210248B5
:10141000FFF779B800100140000801402DE9F05FA6
:101420000026424C404D4FF0FF39B2464FF0010BC1
:101430004FF480786715304600F0BCF94021204613
:10144000C5F80890FFF75AF808B9C5F808A0802138
:101450002046FFF753F808B9C5F808B041462046C2
:10146000FFF74CF808B90220A86039462046FFF77C
:1014700045F808B1A86801E00320A860401C36D0F8
:1014800040212046FFF73AF80028F9D08021204675
:10149000FFF734F80028F9D041462046FFF72EF830
:1014A0000028F9D039462046FFF728F80028F9D05F
:1014B000A868002200EB86064FF400411C48C5F8DE
:1014C0000890FFF720F8002208212046FFF71BF8BC
:1014D000002210212046FFF716F800222021204686
:1014E000FFF711F810482C30805DBDE8F09F3220E6
:1014F000FEF7F0FE761C042E9DDB00224FF4004127
:101500000B48FFF700F8002208212046FEF7FBFFFA
:10151000002210212046FEF7F6FF0022202120465F
:10152000FEF7F1FFE1E7000004000020000C01409D
:101530000008014010B50120FEF7CCFE054900204F
:101540000860012000F0A0F8BDE81040022000F083
:101550009BB8000000000020094910B50020086079
:101560000120FEF7B7FEFFF7E5FF282000F08CF81A
:10157000062000F089F8BDE810400C2000F084B887
:101580000000002070B5144C05460122206804219B
:10159000401C20601148FEF7B6FF206810280CDBC5
:1015A00008D1284600F046F8BDE87040012102202D
:1015B00000F024B811380F2804D22846BDE8704046
:1015C00000F038B8284600F035F80121084600F050
:1015D00015F80020206070BD0000002000080140C8
:1015E00010B504460120FEF775FE02E0FFF7CAFFC2
:1015F000641C20780028F9D110BD000070B50646A3
:101600000C460120FEF766FE094D012E09D0022E80
:1016100006D104F1BF00C0B200F036F80F342C60E0
:1016200070BD04F17F00C0B200F02EF8641EF6E732
:101630000000002070B500F00F0405090120FEF73E
:1016400049FE104E012202213046FEF75CFF00F0F9
:1016500093F82846FFF7BEFE002202213046FEF72F
:1016600052FF012202213046FEF74DFF00F084F8C0
:101670002046FFF7AFFE3046BDE870400022022151
:10168000FEF741BF0008014010B5044600220421C6
:101690000348FEF738FF2046BDE81040FFF7CABFF9
:1016A000000801401CB5FEF741FFFFF7BFFCFFF744
:1016B000FFFBFFF781FCFFF74FFFFFF73BFF4FF406
:1016C0008056234D234C28E0E1683C2091FBF0F24A
:1016D000E26191FBF0F200FB12100A2190FBF1F2A3
:1016E000C4E9080290FBF1F201FB12000121A062A3
:1016F0000846FFF783FF18A0FFF772FF06210220BC
:10170000FFF77CFFA06A009018A101A8636AE26954
:10171000FFF77CFD01A8FFF763FF60690128D3D0C4
:1017200031462846FEF7EAFE012801D1606958B12A
:1017300031462846FEF7E2FE0028EED16069012816
:10174000EBD0FFF731FDE8E7FEF728FDE5E7000005
:10175000000801400400002054696D652072656D29
:1017600061696E696E67203A000000003025643AB6
:10177000256425640000000010B5002201210B48FB
:10178000FEF7C1FE0A4C00224FF400412046FEF74E
:10179000BAFE00224FF480412046FEF7B4FE00223C
:1017A00061142046BDE81040FEF7ADBE00080140C0
:1017B00000100140F8B5044611A06D460068009085
:1017C0001DF804004FF4004100F008020D48FEF738
:1017D0009AFE285D0C4E00F0040208213046FEF708
:1017E00092FE285D102100F002023046FEF78BFECB
:1017F000285D202100F001023046FEF784FEF8BD8E
:10180000070B0D0E00080140000C01400000000015
:101810000000000001020304060708093C18000844
:101820000000002050000000541200088C1800082E
:101830005000002040040000641200080000000076
:101840003100000000000000FFFFFFFF3C0000002F
:101850000000000000000000000000000000000088
:1018600000000000000000000000000031323341A1
:1018700034353642373839432A30234401000000DA
:0C18800010000000000000000024F40034
:04000005080000ED02
:00000001FF
